:020000040800F2
:10000000A011002045010008295D0008D14C00081E
:10001000755B000891090008DD760008000000000B
:10002000000000000000000000000000F96500086A
:100030009913000800000000D5640008056A000854
:100040005F0100085F0100085F0100085F01000810
:100050005F0100085F0100085F010008B116000899
:10006000B9160008C11600085F0100085D130008FA
:100070006913000875130008811300088D13000828
:100080005F0100085F010008850900085F010008A2
:100090005F0100085F0100085F010008C916000841
:1000A0005F0100085F0100085F0100085F010008B0
:1000B0005F0100085F0100085F0100085F010008A0
:1000C0005F0100085F0100085F0100085F01000890
:1000D0005F010008C57000085F010008DD700008BE
:1000E000A91600085F0100085F0100085F01000811
:1000F0005F0100085F0100085F0100085F01000860
:100100005F0100085F010008096B00085F0100083B
:100110005F0100085F010008156B0008216B0008F3
:100120005F0100085F0100085F0100085F0100082F
:10013000DFF80CD000F0B2FB00480047897C0008D3
:10014000A01100200648804706480047FEE7FEE76A
:10015000FEE7FEE7FEE7FEE7FEE7FEE7FEE7FEE777
:10016000096A00083101000840EA01039B0703D037
:1001700009E008C9121F08C0042AFAD203E011F8E6
:10018000013B00F8013B521EF9D27047421C10F8A7
:10019000011B0029FBD1801A70472DE9F0410E4662
:1001A0000546002400E0641C285D00F093F9074632
:1001B000305D00F08FF9381A02D1295D0029F2D1A3
:1001C000BDE8F0812DE9F0410546002090460E463D
:1001D000044600E0641C44450BD2285D00F07AF927
:1001E0000746305D00F076F9381A02D1295D002902
:1001F000F0D1BDE8F081F0B480EA0102D40F4200F2
:10020000B2EB410F02D20246084611464A0042D0E4
:10021000C30DDDB2C1F3C752AD1A202D35DAC1F3DB
:10022000160141F4000204B15242C5F1200602FA5F
:1002300006F12A411044B3EBD05F23D0C4B1012DA5
:10024000A0EBC35009DCF0BC4FF0004202EAC352FD
:10025000DBB200F5000000F04CB9400000F1807006
:1002600000EBC350A0F1807040EAD170490009E072
:10027000490841EAC071A0EBC35000F500004008F6
:1002800000EBC350F0BC00F02BB96142012202EB3D
:100290004101001BF6E7F0BC704781F00041AAE77E
:1002A00080F00040A7E780EA010210B502F00043A9
:1002B000400022D04A001FD0010E01EB1261C0F3B2
:1002C0005600C2F3560240F4000042F40002A0FBC4
:1002D000022000047F39140400D0401C50EA124070
:1002E00001D44000491EC2B20C0604EBD010401CE1
:1002F0004008802A02D003E0002010BD20F0010059
:10030000002900DA0020184310BD2DE9F04D81EAE4
:10031000030404F0004B21F0004514464FF0000A9E
:1003200023F0004150EA050220D054EA01021DD01A
:10033000C5F30A570246C5F31303C1F31300C1F313
:100340000A5640F4801543F48013A7EB0608101BEF
:10035000D64608F2FD3873EB050002D308F1010818
:1003600001E092185B41B8F1000F03DA002001466A
:10037000BDE8F08D00204FF48011064684460EE063
:10038000171B73EB050705D3121B63EB050306432D
:100390004CEA010C49084FEA300092185B4150EAE0
:1003A0000107EDD152EA030012D082EA040083EA89
:1003B0000501084305D0101BAB4106D201220023E2
:1003C00006E000224FF0004302E06FF001025310FC
:1003D0001AEB06004CEB085110EB0A0041EB0B0145
:1003E000BDE8F04D00F0B3B8C10F80EAE0700844FA
:1003F000CA079623002100F07CB80EB540F23341C5
:1004000002910021CDE900110A460B4600F0AEF83A
:1004100003B000BD00F0004220F00040C10DC0F369
:10042000160040F400007F2901DA00207047962969
:1004300003DCC1F19601C84001E096398840002AEA
:10044000F4D04042704730B50B46014600202022D0
:10045000012409E021FA02F59D4205D303FA02F5D1
:10046000491B04FA02F52844151EA2F10102F1DC31
:1004700030BD2DE9F05F0546002092469B46884638
:100480000646814640241BE0284641464746224610
:1004900000F02BFA53465A46C01A914110D3114628
:1004A0001846224600F012FA2D1A67EB01084F4653
:1004B00022460120002100F009FA17EB00094E4105
:1004C000201EA4F10104DFDC484631462A4643469B
:1004D000BDE8F09FA0F14101192900D820307047F4
:1004E0000029A8BF7047401C490008BF20F0010048
:1004F000704710B4B0FA80FC00FA0CF050EA010426
:1005000004BF10BC704749B1CCF1200421FA04F4B7
:1005100011FA0CF118BF012121430843A3EB0C0190
:10052000CB1D4FEA00614FEA102042BF002010BCF3
:10053000704700EBC35010440029A4BF10BC7047A3
:10054000401C490008BF20F0010010BC704710B5E6
:10055000141E73F1000408DA401C41F100019218E6
:100560005B411A4301D120F0010010BD2DE9F04D8F
:1005700092469B4611B1B1FA81F202E0B0FA80F2E4
:100580002032904600F0A2F904460F4640EA0A00E5
:1005900041EA0B0153465A46084313D0114653EA29
:1005A000010019D0C8F14002504600F09EF90546FE
:1005B0000E4650465946424600F088F9084305D099
:1005C000012004E020463946BDE8F08D00200543B7
:1005D00046EAE0762C4337430A986305E40AA0EB29
:1005E00008000022FD0A44EA47540A3002D50020E0
:1005F0000146E9E7010510196941DDE908450019DF
:100600006941BDE8F04DA2E72DE9FE4F804681EA41
:100610000300C00F0C46009021F0004123F000457C
:10062000B8EB0200A94105D24046214690461C463F
:100630000B46024623F00040104347D0270DC7F376
:100640000A00C3F30A510290401A019040286BDA65
:10065000C3F3130040F4801B0098924620B100239E
:10066000D2EB030A63EB0B0B01985946C0F1400231
:10067000504600F02BF906460D4650465946019A61
:1006800000F043F910EB08006141002487EA1152A1
:1006900084EAE7731A4340D0009A62B3019A012AB0
:1006A0004FEA075215DC001B61EB02014FF00042DC
:1006B00002EA0752CDE90042001C41F580113246A2
:1006C0002B46FFF753FF03B0BDE8F08F40462146AD
:1006D000F9E7001B61EB0201001C41F580130018D3
:1006E0005B412018A2F5001747EB030140EAD570E3
:1006F000B6196D4111E06D084FEA360645EAC0753E
:100700004FEA0752001B61EB0201001C41F580110A
:1007100049084FEA30000019514132462B4603B0D8
:10072000BDE8F04FFFF713BF0098012240000023FF
:10073000D0EB020263EBE073009821464FEAE074CD
:10074000B8EB000061EB0401E9E783F000435BE7ED
:1007500081F0004158E72DE9FE4F81EA030404F0DF
:10076000004421F0004100944FF0000B23F00043BF
:1007700050EA01045ED052EA03045BD0C3F30A548A
:10078000C1F30A552C44A4F2F3340194A0FB0254A3
:10079000C1F3130141F48011C3F3130343F4801335
:1007A00001FB024400FB034E840A970A44EA815489
:1007B00047EA8357A4FB076802958D0A05FB078566
:1007C0004FEA932C04FB0C542705029D4FEA065870
:1007D00047EA1637B5EB08056EEB070C870E920E4D
:1007E00047EA811742EA8312A7FB0201B6EB0B012D
:1007F00064EB00042B0D43EA0C335E1844EB1C50F1
:10080000DA465146E7FB0201C5F313044FEA0B3306
:1008100043EA14534FEA0432019C43EA0603A4F16D
:100820000C040294009CCDE900B4FFF79FFE03B0D6
:10083000BDE8F08F00200146F9E7C1F30A52C1F389
:10084000130140F2FF3341F480119A4202DA002092
:100850000146704740F233439A42A2F2334202DC2F
:10086000524200F042B800F031B8000030B5041E2A
:1008700071F1000404DB4FF00044404264EB0101DD
:10088000141E73F1000405DB1C464FF00043524276
:1008900063EB0403994208BF904230BD1CB5094880
:1008A0000090094801900546009C06E0E06840F091
:1008B000010394E8070098471034AC42F6D3FFF7E1
:1008C0003BFC00001093000830930008202A04DB52
:1008D000203A00FA02F1002070479140C2F1200353
:1008E00020FA03F3194390407047202A04DB203A92
:1008F00021FA02F00021704721FA02F3D040C2F140
:1009000020029140084319467047202A06DBCB1786
:10091000203A41FA02F043EAE07306E041FA02F3BA
:10092000D040C2F12002914008431946704770B58B
:100930008C1810F8015B15F0070301D110F8013B8A
:100940002A1106D110F8012B03E010F8016B01F811
:10095000016B5B1EF9D12B0705D40023521E0DD469
:1009600001F8013BFAE710F8013BCB1A921C03E0B7
:1009700013F8015B01F8015B521EF9D5A142D8D3EF
:10098000002070BD40F64400C2F2000000F04ABFF3
:10099000FEE7000040F28020C2F20000C18D0AB2E2
:1009A00081EAE231C1EBE231028EC18511B282EA05
:1009B000E132C2EBE13101867047000040F2802055
:1009C000C2F20000C18D0AB281EAE231A1EBE2314C
:1009D000028EC18511B282EAE132A2EBE1310186D9
:1009E0007047000040F28020C2F200000021018721
:1009F000C0E90B11416340F2F401C2F20001416011
:100A00007047000040F28022C2F20002908D013057
:100A100001B201202D29A8BF2D21918505F0F6BE38
:100A2000B0B540F28024C2F200046068218F00EB70
:100A300001108289A2B1E38E33B301339DB2954296
:100A4000E38608D040F25002C2F200025269806888
:100A5000824228BFB0BD0020E086481C2087B0BD80
:100A600000252570B0F90010012005F0CFFE002010
:100A7000002100F093FC0120002100F08FFC25876D
:100A8000C4E90B556563B0BD0121E1864188E1856C
:100A900081882186B0F900100120BDE8B04005F042
:100AA000B5BE000010B582B040F28024C2F200044E
:100AB000207810B3207802281FD10120207005F083
:100AC00003FE00F045F8A06A411C0928A16212DB70
:100AD000B4F92E000021A162FFF786FC009040F2DD
:100AE0006020C2F200008068FFF77EFC019068463B
:100AF000022105F083FDFFF793FF02B010BD000057
:100B000040F28022C2F20002908D013801B2012031
:100B100011F12D0FD8BF6FF02C01918505F076BE35
:100B200040F28020C2F20000C18D028E0539C185DD
:100B3000511F01867047000040F28020C2F2000081
:100B4000C18D028E0531C185511D0186704700009F
:100B50002DE9F04F83B040F2BC00C2F2000086687D
:100B600040F2802740F260280096C2F20007C2F2ED
:100B70000008D0E9009AB7F92E00D8F80810401AFA
:100B8000D7E902120292D7E90423141801933C61B9
:100B9000D8F80820D8F80830A1EB020BBB60FFF7AB
:100BA00023FC05462046FFF71FFC01465046FFF791
:100BB0007AFB044628464946FFF775FB2146FFF7B6
:100BC0001AFB04465846FFF70FFC3146FFF76BFB54
:100BD0002146FFF710FBFFF71DFC78868346B7F927
:100BE0003000D8F81410401A01990D187D61D8F81A
:100BF0001410D8F81420029BFA605C1AFFF7F4FB7B
:100C000006462846FFF7F0FB01465046FFF74BFB30
:100C1000054630464946FFF746FB2946FFF7EBFA03
:100C200005462046FFF7E0FB0099FFF73CFB29460D
:100C3000FFF7E1FAFFF7EEFBB8860020594600F017
:100C4000ADFBB88E404201B2012003B0BDE8F04FC9
:100C500000F0A4BB40F28020C2F20000012101702C
:100C60007047000040F28020C2F2000000210170B5
:100C700000F000BB40F28022C2F2000200230120FB
:100C80000021938505F0C2BD40F28020C2F2000031
:100C90000121017040F27411C2F2000141607047FD
:100CA00010B540F2B434C2F20004D4F8180101289F
:100CB00005D0D4F81001D4F81411884220D0D4F80B
:100CC0001001D4F8441204EB8000D0F80031D4F8BD
:100CD000102191F82000D1F814C0C96904EB8212E8
:100CE000E047D8B3D4F81011002003294FF00001D9
:100CF0001CBFD4F810110131C4F81011C4F8180148
:100D0000D4F86003012806D0D4F85803D4F85C1353
:100D1000884208BF10BDD4F85803D4F88C1404EBF3
:100D20008000D0F84833D4F85803D1F814C004EB4D
:100D3000801291F82000C96902F51272E04768B18B
:100D4000D4F85813002003294FF000011CBFD4F839
:100D500058130131C4F85813C4F8600310BD0000E3
:100D600010B540F2B434C2F20004D4F838020128BD
:100D700022D0D4F83402012805D0D4F82C02D4F8BB
:100D80003012884218D0D4F82C02D4E9902C04EB0D
:100D90008000D0F81C32D4F82C0204EB801000F54F
:100DA0008E71D018C4F84002DCF808009AB203F043
:100DB000EBFE0120C4F83802D4F88004012825D0C5
:100DC000D4F87C04012806D0D4F87404D4F878143C
:100DD000884208BF10BDD4F87404D4F8882404EB0A
:100DE0008000D4F88CC4D0F86434D4F8740404EBD4
:100DF000801000F55971D018C4F88804DCF8080098
:100E00009AB203F0C1FE0120C4F8800410BD0000B6
:100E10002DE9F0414EA007F033FC05F037FA05F05C
:100E200033F940F25C20C2F20000037840F2BA2E9F
:100E3000C2F2000E00208EF80300D3B39EF800200B
:100E40009EF8011048F6505803F0030C042BC0F62E
:100E5000000833D200240023BCF1000F29D0C4EBDA
:100E6000C40008EB8000047E944205D1447E8C428D
:100E700004BF01338EF80330BCF1010F19D090F894
:100E80003440944207D100F11C04647E8C4204BFBC
:100E900001338EF80330BCF1020F0AD090F8507085
:100EA000974206D13830407E884204BF581C8EF8E5
:100EB0000300BDE8F04100F0DDB900BF9C08E4008C
:100EC000A4EB93031D0100260024002305E000BFCE
:100ED0007036B54204F10404BED008EB0607387E34
:100EE00090420DD097F83400904213D097F85000FC
:100EF00090421AD097F86C009042E9D120E000BFF0
:100F0000787E884204BF01338EF8033097F83400AE
:100F10009042EBD197F83500884204BF01338EF838
:100F2000033097F850009042E4D197F8510088427E
:100F300004BF01338EF8033097F86C009042C7D19C
:100F400097F86D00884204BF01338EF80330BFE785
:100F50005374617274204374726C204D656E752EEB
:100F60002E2E0D002DE9F04381B040F2BA29C2F2D5
:100F7000000999F8050001280FD1002089F8050023
:100F800099F8020099F803100130C2B2511A18BF43
:100F9000014689F8021000F06DF999F80600012861
:100FA0001CBF01B0BDE8F083002189F8061099F854
:100FB0000400032850D899F80200A9F8021040F262
:100FC0005C21C2F2000199F80020097802F1010EBB
:100FD00089F800E089F80100C1B3042901F0030C8D
:100FE00048D200210022BCF1000F2FD048F6505308
:100FF000C1EBC101C0F6000303EB81010C7E5FFA77
:101000008EF39C4205D14F7E874204BF013289F89E
:101010000320BCF1010F19D091F834709F4207D121
:1010200001F11C077F7E874204BF013289F803204B
:10103000BCF1020F0AD091F850709F4206D13831AE
:10104000497E814204BF501C89F8030001B0BDE80D
:10105000F04300F00FB900BF48F65051C0EBC0009C
:10106000C0F6000101EB8000406901B0BDE8F0432B
:10107000004700BF8A08D200A2EB910148F6505801
:101080000B010025C0F600085FFA8EF70021002250
:1010900005E000BF7035AB4201F10401A3D008EBBD
:1010A0000506347EBC420DD096F83440BC4213D0C5
:1010B00096F85040BC421AD096F86C40BC42E9D138
:1010C00020E000BF747E844204BF013289F803200F
:1010D00096F83440BC42EBD196F83540844204BFC8
:1010E000013289F8032096F85040BC42E4D196F8CA
:1010F0005140844204BF013289F8032096F86C40C5
:10110000BC42C7D196F86D40844204BF013289F8D1
:101110000320BFE72DE9F04340F2BA28C2F20008ED
:1011200098F8000048F65059A0F1010E5FEA0E60F1
:1011300088F800E004BF002088F8010098F8040057
:10114000C0F60009C0EBC00009EB8000407E002122
:1011500088F8020040F25C20C2F20000007888F8B3
:101160000310B0B398F80110042800F0030C35D236
:1011700000240023BCF1000F2BD0C4EBC40009EB0A
:101180008000047E5FFA8EF2944205D1477E8F4242
:1011900004BF013388F80330BCF1010F19D090F877
:1011A0003470974207D100F11C077F7E8F4204BF45
:1011B000013388F80330BCF1020F0AD090F8507068
:1011C000974206D13830407E884204BF581C88F8C8
:1011D0000300BDE8F04300F04DB800BF8308DB001A
:1011E000A3EB9000050100265FFA8EF70024002390
:1011F00005E000BF7036B54204F10404BAD009EB33
:101200000600027EBA420DD090F83420BA4213D0C4
:1012100090F85020BA421AD090F86C20BA42E9D126
:1012200020E000BF427E8A4204BF013388F80330C9
:1012300090F83420BA42EBD190F835208A4204BFAE
:10124000013388F8033090F85020BA42E4D190F886
:1012500051208A4204BF013388F8033090F86C2093
:10126000BA42C7D190F86D00884204BF013388F8B4
:101270000330BFE72DE9F04782B040F25C2AC2F2AA
:10128000000A9AF800004FF00008002848D048F6FD
:10129000505440F2BA25C0F60004C2F200054FF0E7
:1012A00001090026002704E00136864204F11C04EF
:1012B00030D2217E2A789142F6D1617E6A789142BD
:1012C000F2D1A878A17EC20704D1814204D011D8FE
:1012D00019E000BF814209D1F8B200212246102353
:1012E000CDF8009004F022FD2E710BE000F0FE001E
:1012F000884208D8F8B2002122461023CDF8008099
:1013000004F014FD0137F8B2022806D09AF8000064
:10131000CAE700BFF8B2012803D902B0BDE8F087E0
:101320000027FCB249F20E32C0F60002204600212E
:101330001023CDF8008004F0F9FC002CEDD149F227
:101340000E320027C0F60002012000211023009772
:1013500004F0ECFC02B0BDE8F087000040F6740039
:10136000C2F2000000F0A2BC40F68410C2F20000FD
:1013700000F09CBC40F64010C2F2000000F096BCA9
:1013800040F6FC00C2F2000000F090BC40F6B8004D
:10139000C2F2000000F08ABC70470000B0B501281E
:1013A000C8BFB0BD0C4640F20401C2F2000101EB1F
:1013B0000015D5E9010102F0C7FD6868E96802F08F
:1013C000C3FDB4F1FF3F0FDDD5E90101026819B398
:1013D00008291BD0042914BF40233823D450BDE86A
:1013E000B04002F041BD00BF6868E9680268C4F11E
:1013F0000003E9B1082915D0042914BF4025382578
:101400005351BDE8B04002F02FBD00BF3C23D45083
:10141000BDE8B04002F028BD3423D450BDE8B04050
:1014200002F022BD3C255351BDE8B04002F01CBD86
:1014300034255351BDE8B04002F016BD2DE9F0430C
:1014400093B000210128CDE91111CDE90F11CDE9AB
:101450000C11CDE90A11CDE90811CDE90611CDE94C
:101460000411CDE90211019102D913B0BDE8F08356
:1014700040F20402C2F2000202EB00150001105813
:1014800041F218066C68C4F202068F2242F20F7312
:10149000B0F1804FC4E90002C4E902132161A161E7
:1014A00008D1716841F001017160716801F00101BA
:1014B0000091009943F20049C4F2010940F6000886
:1014C0004845C4F2000817D040450DD040F2004115
:1014D000C4F20001884218D1706840F002007060C8
:1014E000706800F002000EE0706840F00400706068
:1014F000706800F0040006E0306840F4005030608E
:10150000306800F40050009000984FF480500F9025
:101510000FA9204602F01AF8002818BF00F0D8F8EA
:10152000204602F059FC002818BF00F0D1F800272F
:101530000CA92046CDE90C7701F0BAFE002818BFAF
:1015400000F0C6F86020AA68CDE9050705A9204685
:101550000797099702F012FB002818BF00F0B8F8AF
:10156000EA6805A9204602F009FB002818BF00F030
:10157000AFF8206840F60045B0F1804FC4F2010595
:1015800032D0484556D040456CD040F20041C4F2BC
:10159000000188427FF469AF306801A940F008007B
:1015A0003060306800F0080000900098032001903F
:1015B000022002900490284600F08CFD0420C4F222
:1015C00001004EF6FF720168CFF6FF0202F580625D
:1015D000114001F1E06101F5807101F5E061016008
:1015E00013B0BDE8F08300BF306801A940F00800E7
:1015F0003060306800F00800009000984FF44060C0
:101600000190022002900490284600F063FD04201F
:10161000C4F201004EF6FF720168CFF6FF0202F538
:101620005062114041F0E06141F480710160206836
:101630004845A8D1306801A940F0100030603068FA
:1016400000F01000009000984FF4407001900220CC
:101650000290049005F5806000F03CFD13B0BDE8F9
:10166000F08300BF306801A940F0080030603068A6
:1016700000F00800009000984FF4407001900220A4
:1016800002900490284600F025FD0420C4F20100D9
:1016900001684EF6FF72CFF6FF02114001F1E061E2
:1016A000016013B0BDE8F0834FF4805000F006BD38
:1016B000022000F003BD0000042000F0FFBC000089
:1016C000082000F0FBBC0000202000F0F7BC000068
:1016D000EFF3108072B600BFFEE700007047000015
:1016E00070B581B00022009290F82420012A03D125
:1016F0000221084601B070BD4A680123062A02EBA8
:10170000820E80F8243007D8D0F800C06FF00403B0
:101710000CF134060CE000BFD0F800C00C2A87BFE3
:101720000CF12C066FF040030CF130066FF0220331
:101730000EEB03021F23346803FA02F50B6824EA58
:10174000050503FA02F22A433260092B03EB430238
:101750001AD9DCF80C601E3A072589689540AE431B
:10176000914023F001023143102ACCF80C1015D11E
:1017700042F20041C4F201018C4517D0816A41F068
:101780002001816201210AE0DCF810300726896817
:101790009640B34391401943CCF810100021002229
:1017A00080F82420084601B070BD00BF8968090296
:1017B000F4D4DCF80810102B41F40001CCF8081028
:1017C000ECD140F2B801C2F2000109684DF6836223
:1017D000C4F21B32A1FB0212910C01EB8101490002
:1017E000009100990029D9D0009901390091009900
:1017F0000029D3D000990139009100990029CDD05A
:1018000000990139009100990029C7D00099013948
:101810000091009900294FF00001E5D1BFE70000D9
:101820007047000070B50446006805684668B10658
:1018300027D515F0020124D0A16AC90603D4A16AF4
:1018400041F40071A162816801F46021B1F5602F5B
:1018500010D1217B71B9416821F020014160A06A5B
:1018600020F48070A062A06AC00403D4A06A40F093
:101870000100A0622046FFF7D3FF20686FF012013D
:101880000160310633D515F0040130D0A16AC906D4
:1018900003D4A16A41F40051A162816801F4E041DE
:1018A000B1F5E04F10D1416821F080014160A06A9C
:1018B00020F48050A062A06AC00511D4A06A40F054
:1018C0000100A0620CE000BF4168490508D48168AE
:1018D00001F46021B1F5602F02D1217B0029E2D013
:1018E0002046FFF7FBFE20686FF00C0101607006D8
:1018F0000ED515F0010008BF70BDA06A40F480301D
:10190000A062204600F0BCF820686FF00101016081
:1019100070BD0000002804BF01207047B0B5044628
:10192000806A28B121688868C0070CD115E000BF23
:101930000020E06284F82400204600F0A3F821682B
:101940008868C00709D0886820F00100886000F02E
:10195000C1FC21688A68D20730D1A06AC00644D48D
:10196000A06A41F2021290430230A062E36981F062
:10197000804080F49E3083F440221043D4E9010279
:1019800008BF4FF4002343EA000C531EB3FA83F35D
:101990005D091346B2F5807F18BF2B02207D257BA1
:1019A00001284CEA45002CD135B3A56A45F0200545
:1019B000A562E56A45F00105E56222E0054602E020
:1019C0008868C007C9D000F085FC401B2168032847
:1019D000F6D38868C007F3D0A06A40F01000A06278
:1019E000E06A40F00100E062A06AA06A40F01000E6
:1019F000A0620120B0BD00BFA56903EB4533A3F58C
:101A0000C0534D68B2F5807F25F4694543EA05036C
:101A10004B608B684FF2FD75CFF6E17503EA050365
:101A200043EA00038B6001D0012A07D12269002319
:101A3000CFF6F07303EB025201E000BF0022CB6A45
:101A400023F470031A43CA62896840F6FE62CFF637
:101A50001F721140814207D10020E062A16A012279
:101A600062F30101A162B0BDA06A40F0100020F055
:101A70000200A062E06A40F00100E0620120B0BD17
:101A80007047000070B586B0044641F20000C4F211
:101A90000100216800F5A052002691420596CDE98B
:101AA0000366029602D006B070BD00BF41F2180175
:101AB000C4F202010A6842F400720A600A6802F481
:101AC00000720192019A0A6842F010020A600968E5
:101AD00001F010010191019901210291032103916B
:101AE00002A900F0F7FA40F674050820C2F20005DA
:101AF000C4F202004FF48072C5E9000605F110003F
:101B000080214FF480634CC02846C5E90261EE6134
:101B100000F014FA002818BFFFF7DAFD12200021A8
:101B2000002225626C6200F001FE122000F0ECFD44
:101B300006B070BD014690F82100022816D1086851
:101B4000D1E90FC3026822F00E020260026822F09F
:101B500001020260012000FA03F2CCF8042081F8AF
:101B600021000020002281F8202070470420886393
:101B70000120002281F820207047000090F82110F9
:101B8000022927D1026840F2040C1368C4F2020C47
:101B900023F00E03136013680CF17C018A4223F0DA
:101BA000010111601AD940F20841C4F202018A42CF
:101BB00050D040F21C41C4F202018A4242D040F2AD
:101BC0003041C4F202018A4248D14FF48073CCF80C
:101BD00000345CE004218163012070474321C4F29A
:101BE00002018A420EDD6B21C4F202018A421BDC33
:101BF0004421C4F202018A423ED05821C4F20201BB
:101C00008A4223E00821C4F202018A4232D01C2118
:101C1000C4F202018A4237D03021C4F202018A4262
:101C200014D14FF4807230E06C21C4F202018A4278
:101C300026D08021C4F202018A4207D14FF080727F
:101C400023E000BF1023CCF8003420E04FF48032B2
:101C50001BE000BF0123CCF8003418E00CF58861CC
:101C60004FF480338A4208BF4FF48053CCF80034DD
:101C70000DE000BF012208E04FF4805205E000BFF4
:101C80004FF4801201E000BF1022CCF800200121A7
:101C900080F82110416B0022002980F8202004BF29
:101CA0000020704780B58847002080BD10B5D0E97E
:101CB0000FE3D0F800C0DEF80020DCF80010DA40B6
:101CC00054072DD511F004042AD0DCF80010890641
:101CD00005D4DCF8001021F00401CCF80010042237
:101CE000C4F2020202F17C018C4569D940F208413C
:101CF000C4F202018C4500F0B78040F21C41C4F2EE
:101D000002018C4500F0A88040F23041C4F202018B
:101D10008C4540F0AD804FF48061C2F80014F3E0D0
:101D200094072FD511F002042CD0DCF8001089069E
:101D300008D4DCF8001021F00A01CCF800100121D1
:101D400080F821100422C4F2020202F17C018C45C9
:101D50004CD940F20841C4F202018C4500F0BC802D
:101D600040F21C41C4F202018C4500F0AD8040F20B
:101D70003041C4F202018C4540F0B8804FF400714C
:101D8000BCE000BF120740F1D78011F0080108BF86
:101D900010BDDCF8001021F00E01CCF8001001217C
:101DA00001FA03F2CEF80420816380F82110016B60
:101DB0000022002980F8202040F0A880BCE000BF6D
:101DC0004321C4F202018C4526DD6B21C4F20201DD
:101DD0008C4533DC4421C4F202018C4500F07E8046
:101DE0005821C4F202018C453AE000BF4321C4F2FD
:101DF00002018C4548DD6B21C4F202018C4555DCA3
:101E00004421C4F202018C4500F086805821C4F2BE
:101E100002018C455CE000BF0821C4F202018C4540
:101E200054D01C21C4F202018C456BD03021C4F285
:101E300002018C4514D14FF4806164E06C21C4F23E
:101E400002018C454ED08021C4F202018C4507D19D
:101E50004FF0806157E000BF4021C2F8001453E00A
:101E60004FF480214FE000BF0421C2F800144BE082
:101E700002F588634FF480219C4508BF4FF48041F0
:101E8000C2F8001440E000BF0821C4F202018C45F2
:101E900040D01C21C4F202018C4545D03021C4F24F
:101EA00002018C4514D14FF400713EE06C21C4F264
:101EB00002018C4534D08021C4F202018C4507D147
:101EC0004FF0007131E000BF202117E004211AE03B
:101ED0004FF4003129E000BF02210FE04FF48041B0
:101EE00011E000BF4FF480010DE000BF02F58863F0
:101EF0004FF400319C4508BF4FF40051C2F8001464
:101F000014E000BF40211160C16AA9B1BDE81040D2
:101F1000084700BF022108E04FF4005105E000BF70
:101F20004FF4001101E000BF20211160816A0022FE
:101F3000002980F82020E9D110BD000001460028CA
:101F40004FF0010008BF70472DE9F04740F2000C48
:101F5000C4F2020C0A684FF6F8330CF5816ECBF62A
:101F6000FD73724538BF03F5806303EB020E4CF638
:101F7000CD43CCF6CC43AEFB033E0CF580636FF053
:101F80000304D1E9019AD1F80C803CBF0023C4F2CC
:101F9000020304EA9E04C1E90F34022381F82130D0
:101FA000136843F6F074A34301F1100743EA0903F1
:101FB000F0CF43EA0A0343EA080323432B433343A6
:101FC0003B43136000228A6381F8210081F82020BE
:101FD0000020BDE8F047704790F820C0BCF1010F29
:101FE00004BF02207047F0B54FF0010E80F820E0EA
:101FF00090F821C0BCF1010F26D14FF0020C80F8FF
:1020000021C04FF0000CC0F838C0D0E900C4C56A48
:10201000C66BDCF80070102C27F00107CCF80070BC
:10202000006C0EFA00F070600846CCF8043004BF73
:1020300010460A46CCF80800CCF80C20DCF800006A
:1020400045B140F00E000DE0002180F82010022084
:10205000F0BD00BF20F00400CCF80000DCF8000068
:1020600040F00A00CCF80000DCF8000040F001006D
:10207000CCF800000020F0BD10B5044605F090F942
:10208000022C13D0082C09D0042C18BF10BD40F22C
:10209000C020C2F200000121017010BD40F20D30DD
:1020A000C2F200000121017010BD00BF40F2BF204C
:1020B000C2F200000121017010BD000040F2144185
:1020C000C4F201010A68024214BF08607047FFF7BA
:1020D000D3BF00002DE9F04F82B00E68002E00F053
:1020E000E980A0F1804241F6004540F20043A2F5AC
:1020F0008432C4F201050624C4F201034FEAB22778
:10210000A84208BF05244FF0000E4FF001080F252C
:102110004FF0000A4FF0000B052F38BF4FEAB224F2
:10212000009408E00E680AF1010A36FA0AF20EF18C
:10213000040E00F0BF8008FA0AFC16EA0C09F1D080
:102140004E684FF6FF72C1F21002964212DC122E58
:1021500056D8DFE806F0350B4D49555555555555C0
:102160005555555555555545510000BFD1F80CB042
:1021700046E000BF4FF6FF72C1F2210296420FDC2B
:102180000022C1F2110296421AD00022C1F21202BC
:10219000964215D00022C1F22102964210D02FE0C3
:1021A0000022C1F2220296420AD00022C1F231027C
:1021B000964205D00022C1F23202964220D100BFE1
:1021C0008A684AB1012A14BFC0F814C0C0F810C010
:1021D0004FF0080B14E000BF4FF0040B10E000BFFD
:1021E000CA6802F1040B0BE04FF0000B08E000BFDF
:1021F000CA6802F1080B03E0CA6802F10C0B00BFC9
:1022000002467446B9F5807F24BF0432203C16682C
:1022100005FA04F726EA07070BFA04F637431760B6
:10222000CA79D2067FF57EAF41F21807C4F20207E1
:102230003A684FF6084542F001023A603A68CFF634
:10224000FF7502F001020192019A2AF003021A447A
:102250000F2457590EF00C06B440A743009C04FA13
:1022600006F6374357514E6840F20C44F2029A6822
:1022700054BF22EA090242EA0902C4F201049A6048
:102280002268B70254BF22EA090242EA0902226028
:102290005A68B70354BF22EA090242EA09025A60A7
:1022A0000F251A68F70354BF22EA090242EA09021D
:1022B0001A6037E702B0BDE8F08F00008068084080
:1022C00018BF012070470000002A08BF09040161FF
:1022D0007047000040F69C50C2F200000068704752
:1022E000002804BF01207047F0B581B0044690F883
:1022F0003D0028B9002084F83C00204600F050F949
:10230000242084F83D002068016821F0010101606B
:10231000016841F400410160016821F4004101605D
:1023200000F0A0FB636848F2A16CC0F2010C40F61B
:102330000011C0F23D0163453CBF48F28041C0F24C
:102340001E01884202D2012001B0F0BD4DF683612A
:10235000C4F21B31A0FB01122168970CD1F804E0F4
:102360004FF496762EF03F0545EA92454D6077434F
:1023700048F638160D6AC0F24106A7FB067625F02E
:102380003F07634538BF960C721C3A430A62CA691C
:1023900048F2A0664CF6FF77C0F20106B34222EA8B
:1023A00007020BD801385B00B0FBF3F001306FF38C
:1023B0001F30042898BF04201BE000BFA768013825
:1023C00057B119277B43B0FBF3F001306FF31F3097
:1023D00070B100F5804007E003EB4303B0FBF3F07E
:1023E00001306FF31F3018B100F5004001E000BF6D
:1023F00001201043C8610868D4E9072320F0C00019
:10240000104318430860886848F2FF3204F10C0753
:1024100090438CCF18431043A6698860C86820F0A9
:10242000FF0038433043C860086840F0010008608E
:1024300000202021206484F83D10206384F83E00B1
:1024400001B0F0BD2DE9F04383B0994616460F4622
:102450000446FFF73FFF94F83D10202924D105469C
:10246000206800BF816989071AD5FFF733FF411B38
:1024700020681A29F6D381698907F3D50020202125
:10248000206384F83D1084F83E00216C41F0200167
:10249000216484F83C00022003B0BDE8F08300BF53
:1024A00094F83C10012903D1022003B0BDE8F08369
:1024B000012284F83C200368DDE90B180A9ADB0747
:1024C00003D1036843F001030360036823F400634E
:1024D0000360212084F83D00402084F83E00002065
:1024E000206462626185608D394620850020CFF6C8
:1024F000FF70E062204632464B46CDE9008502F08F
:10250000E9FB18B1012003B0BDE8F083208D98B934
:10251000204641462A4602F041FC88B3206C04283C
:10252000F0D12068016841F400710160012003B01E
:10253000BDE8F0830004EBD0204641462A4602F075
:10254000DDFD0028EAD1616A2268084610F8013BE7
:102550001361238D6062581E2085678D013F67855A
:1025600057697F07E6D50704E4D048781061881CD6
:102570006062981E2085618D01396185DAE700BFB0
:102580002068016841F400710160202084F83D005A
:10259000002084F83E0084F83C0003B0BDE8F083DE
:1025A00010B586B0016845F60000C4F20000814213
:1025B0004FF00001CDE90411CDE9021102D006B0BF
:1025C00010BD00BF41F21804C4F20204216800F5F6
:1025D000344041F008012160216801F008010191B7
:1025E00001994FF440610291122103910321059159
:1025F00002A9FFF76FFD606840F4800060606068CA
:1026000000F480000190019806B010BD40F2B000C7
:1026100040F69C51C2F20000C2F2000100780A6844
:10262000104408607047000080B542F20000C4F218
:102630000200016841F010010160032000F0A2F8DF
:102640000F2000F005F800F027F8002080BD000002
:1026500070B540F2B006C2F2000640F2B80132781E
:10266000C2F200014FF47A730968B3FBF2F2044638
:10267000B1FBF2F1084600F0DBFD0F2C4FF0010535
:1026800008D838B94FF0FF3021460022002500F06D
:102690004DF87460284670BD82B041F21800C4F253
:1026A00002000168022241F001010160016801F0AD
:1026B000010101910199416841F0805141604068F8
:1026C00000F08050009000980420C4F201000168DE
:1026D00062F31A61016002B070470000002848BF31
:1026E000704700F01F01012202FA01F11C2202EAE8
:1026F000D0004EF28012CEF200028150BFF34F8F15
:10270000BFF36F8F70470000002848BF704700F08C
:102710001F01012202FA01F11C2202EAD0004EF24E
:102720000012CEF2000281507047000010B54EF644
:102730000C5CCEF2000CDCF80030C3F3022E8EF0FD
:102740000704042C28BF0424BEF103034FF0FF3E0E
:102750000EFA04F438BF0023A14399400EFA03F3A4
:102760009A43114300F00F0200F160430901043A5B
:1027700003F564436244002848BF02F10C0319705A
:1027800010BD00004EF60C51CEF200010A684FF663
:10279000FF031A4060F30A2242F0806040F0FD70AF
:1027A000086070472DE9F04182B00446007841F29C
:1027B0001C06C007C4F202064AD030685FEAC008AF
:1027C00008D4306840F080503060306800F08050AD
:1027D0000190019847F20007C4F200073868C0056D
:1027E00012D4386840F480703860FFF773FD0546F6
:1027F0003868C00508D4FFF76DFD401B6428F7D981
:10280000032002B0BDE8F081706810F4407012D06F
:10281000616801F4407188420DD0706840F2404216
:10282000C4F24222012320F4407113600023C00748
:102830001360716026D17068616820F440700843AD
:10284000B8F1000F706003D4306820F08050306021
:102850002068810707D556F8181CA26821F440416A
:10286000114346F8181CC00607D556F8180C6169C4
:1028700020F48000084346F8180C002002B0BDE8A0
:10288000F08100BFFFF726FD054641F2883700BF03
:1028900070688007CFD4FFF71DFD401BB8424FF092
:1028A0000300F5D9EAE70000002804BF01207047C3
:1028B0002DE9F04381B042F20008C4F20208044658
:1028C000D8F800000D4600F0070081420CD9D8F876
:1028D000000020F007002843C8F80000D8F80000E6
:1028E00000F00700A8426CD1206841F2040981077A
:1028F000C4F2020917D5410705D5D9F8001041F4F3
:10290000E061C9F80010010705D5D9F8001041F4BD
:102910006051C9F80010D9F80010A26821F0F00148
:102920001143C9F80010C00742D1D8F8000000F0E8
:10293000070085420CD2D8F8000020F00700284399
:10294000C8F80000D8F8000000F00700A84238D10D
:102950002068410707D5D9F80010E26821F4E0614A
:102960001143C9F80010000708D5D9F80000216903
:1029700020F4605040EAC100C9F80000D9F80020F6
:1029800002F00C00082841F20020C0F27A004DD17C
:1029900048F6AE43C2F38341C0F60003595CD2034C
:1029A00038D440F60010C0F23D0048433EE000BF7E
:1029B000606859F8041C022808D0012826D1890330
:1029C00006D4012001B0BDE8F08300BF8901F8D52D
:1029D000D9F8001021F003010843C9F80000FFF7FF
:1029E00079FC064641F28837D9F80000616800F0AA
:1029F0000C00B0EB810F98D0FFF76CFC801BB84245
:102A0000F2D9032001B0BDE8F08300BF8907D8D513
:102A1000DEE700BFD9F8002048F6AC43C2F34042DD
:102A2000C0F600039A5C4843B0FBF2F0D9F80010FE
:102A300048F2A462C1F30311C0F60002515C40F2F7
:102A4000B80220FA01F140F2B400C2F200000068BE
:102A5000C2F200021160FFF7FBFD002001B0BDE8EB
:102A6000F083000040F2B80041F20401C2F200001D
:102A7000C4F202010068096848F2B462C1F302219D
:102A8000C0F60002515CC8407047000040F2B80038
:102A900041F20401C2F20000C4F2020100680968B8
:102AA00048F2B462C1F3C221C0F60002515CC840D2
:102AB00070470000002804BF012070472DE9F04155
:102AC00082B00446007841F20006C007C4F2020654
:102AD0000CD0706800F00C00042840F08180306851
:102AE000800303D56068002800F0468120788007C5
:102AF0001BD5706810F00C0F09D0706800F00C0046
:102B0000082840F087807068C00300F18380306837
:102B1000800703D52069012840F02E813068616963
:102B200020F0F80040EAC10030602078000713D49C
:102B3000207840072CD4E569002D00F018817068DA
:102B400000F00C00082840F0A780012D40F004811F
:102B5000012002B0BDE8F081A069002800F0848067
:102B60000020C4F242200121C0F88014FFF7B2FB1C
:102B7000054600BF706A800700F1B280FFF7AAFB2C
:102B8000401B0228F6D9032002B0BDE8F08100BF47
:102B9000F0695FEAC00808D4F06940F08050F06145
:102BA000F06900F080500090009847F20007C4F2EE
:102BB00000073868C00549D4386840F48070386030
:102BC000FFF788FB054600BF3868C0053ED4FFF715
:102BD00081FB401B6428F7D9032002B0BDE8F081D7
:102BE000706800F00C00082803D17068C0033FF53E
:102BF00076AF61683068002900F00C81B1F5A02F34
:102C000000F00081B1F5803F40F01A8140F480303F
:102C10001CE100BF2069002840F20000C4F24220FD
:102C200000F0888001210160FFF754FB054600BFDA
:102C3000306880073FF572AFFFF74CFB401B02285E
:102C4000F6D9032002B0BDE8F08100BFE168306A28
:102C5000002900F09D80052900F09280012940F0B4
:102C6000AF8040F00100B1E00020C4F2422000211A
:102C7000C0F88014FFF72EFB054600BF706A80077E
:102C80007FF556AFFFF726FB401B0228F6D903203D
:102C900002B0BDE8F08100BF0027C4F24227002047
:102CA0003866FFF717FB022D05460DD1306880010D
:102CB00040F1DE80FFF70EFB401B02284FF00300BF
:102CC000F4D902B0BDE8F081306880014FD5FFF73C
:102CD00001FB401B02284FF00300F5D9F1E700BFCC
:102CE00040F2B800C2F20000006844F6D351C1F2CD
:102CF0006201A0FB0101480A019000BF00BF0198DA
:102D0000411E002801913FF413AF00BF0198411EFE
:102D1000002801913FF40CAF00BF0198411E00282C
:102D200001913FF405AF00BF0198411E00280191B9
:102D3000E4D1FDE600210160FFF7CCFA054600BFB3
:102D4000306880077FF5F1AEFFF7C4FA401B022818
:102D50004FF00300F4D9B4E77068216A00F48032C0
:102D60008A4209D1616A00F47010884204D10020BF
:102D700002B0BDE8F08100BF012002B0BDE8F081E3
:102D800040F004003062306A40F001001EE000BFF5
:102D900020F001003062306A20F004003062FFF75A
:102DA00099FA054641F28837306A800720D5FFF747
:102DB00091FA401BB8424FF00300F5D981E700BFFC
:102DC00020F001003062306A20F004003062FFF72A
:102DD00081FA054641F28837306A800708D4FFF748
:102DE00079FA401BB842F7D9032002B0BDE8F08160
:102DF000B8F1000F3FF59FAEF06920F08050F06110
:102E000099E600BF40F480203060306840F48030A4
:102E10001CE000BF20F480303060306820F4802057
:102E20003060FFF757FA0546306880037FF55EAEE5
:102E3000FFF750FA401B64284FF00300F4D940E735
:102E400020F480303060306820F480203060FFF75C
:102E500041FA0546306880033FF548AEFFF73AFA7D
:102E6000401B6428F6D9032002B0BDE8F08100BF02
:102E7000206AB0F5803F05D17168A26821F4003165
:102E8000114371607168626A21F47411114308433F
:102E9000706001203866FFF71DFA04463068800133
:102EA0003FF565AFFFF716FA001B02284FF003004D
:102EB000F4D906E770B528B1416A29B10021016152
:102EC000142106E0012070BD4168B1F5827F02D077
:102ED0001C21002242500026866290F8511029B928
:102EE00080F85060054600F039F82846022180F845
:102EF000511090E82E0002F482720C6803F404432F
:102F000024F040040C601A4405F4006305691A4477
:102F100005F0020345691A4405F001038569C46997
:102F20001A4405F400731A4404F03803046A1A447E
:102F300004F08003846A1A4304F400531A430A60BD
:102F4000042202EA15424A60CA6922F40062CA6198
:102F50000121466580F85110304670BD70B586B0CD
:102F6000006843F60001C4F200010025884205957F
:102F7000CDE9035502952BD043F20001C4F20101C3
:102F8000884255D141F21800C4F20200016802AA39
:102F900041F480510160016802F10C0601F4805196
:102FA000019101990168032541F004010160006865
:102FB00000F0040001900198A020029002200390EC
:102FC00040F60040C4F20100A0F580642BE000BF91
:102FD00041F21800C4F20200416840F6004441F496
:102FE000804141604168C4F2010401F480410191D3
:102FF0000199026802A942F008020260006801F12A
:10300000080600F00800019001984FF4204002905B
:1030100002200390032005902046FFF75BF84FF451
:103020008040CDE9020502A920463560FFF752F83D
:1030300006B070BD2DE9F04182B01D4616460F4620
:103040000446FFF747F994F8511001290ED1804644
:10305000002F4FF0010018BF002E03D102B0BDE8D1
:10306000F08100BF94F85000012803D1022002B083
:10307000BDE8F081012084F850000320002184F88D
:10308000510061652763A686E686A163A187E18773
:10309000A0682164B0F5004F2068616407D1016821
:1030A00021F040010160016841F480410160016844
:1030B000490603D4016841F0400101606168731E54
:1030C000E268B1FA81F1B3FA83F349095B09B2F519
:1030D000006F41EA030139D131B137F8021BC160F9
:1030E0002763E08E0138E086E08E002870D0681CEF
:1030F0000BD11AE0216B31F8022BC2602163E08E04
:103100000138E086E08E002862D020688168890757
:10311000F0D4FFF7DFF8A0EB0800A842F2D338E0C4
:10312000FFF7D8F8E08E002852D020688168890720
:10313000F6D5216B31F8022BC2602163E08E013895
:10314000E086E08E0028F0D142E000BF39B1397846
:103150000173206B01302063E08E0138E086E08E41
:10316000B0B3681C0BD123E0216B09780173206B8D
:1031700001302063E08E0138E086E08E40B32068A5
:1031800081688907F0D4FFF7A5F8A0EB0800A842F2
:10319000F3D3012084F85100002084F8500003206C
:1031A00002B0BDE8F08100BFFFF794F8E08E78B17F
:1031B000206881688907F7D5216B09780173206B36
:1031C00001302063E08E0138E086E08E0028EFD1E8
:1031D0002046022101222B46CDF8008003F07CF925
:1031E00040B92046802100222B46CDF8008003F014
:1031F00073F928B1606D40F02000606520206065A3
:10320000A06838B9002001902068C16801918068E9
:1032100001900198012084F85100002084F85000AA
:10322000606D002818BF012002B0BDE8F0810000E9
:10323000411E0020B0EB116F1CBF012070474EF201
:103240001002CEF2000251604EF62351CEF2000180
:10325000F0230B70072190601160704770470000E9
:103260007047000090F83C20012A04BF02207047FC
:10327000B0B501F108053CCDD1E900CE23F47C5373
:1032800022F470521A432EF4F0431A432CF4E04314
:103290001A4324F4C0431A432A43C96922F48042E2
:1032A000036811435964002180F83C100020B0BD30
:1032B00090F83C20012A4FF0020242D010B580F86D
:1032C0003D200268D2F804E0D2F808C00C682EF065
:1032D0007003234340F6FF34C4F20004A24253605B
:1032E00010DCB2F1804F1FD040F20043C4F2000363
:1032F0009A4219D040F60003C4F200039A4213D058
:1033000017E000BF40F60043C4F200039A420BD01E
:1033100043F20043C4F201039A4205D042F600434F
:10332000C4F201039A4204D149682CF08003194386
:1033300091600121002280F83D1080F83C20BDE81A
:103340001040104670470000002804BF012070475D
:1033500010B5044690F83D0028B9002084F83C00E0
:10336000204600F01FF8022084F83D002068211D4F
:1033700003F0DCFB012084F8460084F83E0084F86A
:103380003F0084F8400084F8410084F8420084F84B
:10339000430084F8440084F8450084F83D00002090
:1033A00010BD000080B582B0006800F140404FEAD7
:1033B000B020052835D8DFE800F00334270F374F59
:1033C00041F21C00C4F20200016841F001010160F9
:1033D000006800F0010022E041F21C00C4F202008B
:1033E0000168002241F0080101600068082100F036
:1033F0000800019001983220FFF798F9322002B0BE
:10340000BDE88040FFF780B941F21C00C4F2020021
:10341000016841F004010160006800F004000190BF
:10342000019802B080BD00BF41F21C00C4F202004E
:103430000168002241F0100101600068052100F0E0
:103440001000019001983620FFF770F9362002B085
:10345000BDE88040FFF758B941F21C00C4F20200F9
:103460000168002241F02001016000680D2100F098
:103470002000019001983720FFF758F9372002B05B
:10348000BDE88040FFF740B990F83D1001291CBF0E
:1034900001207047022180F83D10006840F6FF329D
:1034A000C168C4F20002904241F00101C1600FDC2A
:1034B000B0F1804F1ED040F20041C4F200018842BA
:1034C00018D040F60001C4F20001884212D018E082
:1034D00040F60041C4F2000188420BD043F20041A3
:1034E000C4F20101884205D042F60041C4F2010154
:1034F000884206D1816801F00701062904BF002037
:103500007047016841F00101016000207047000030
:103510000146006841F21113C26822F00102C26044
:10352000026A1A4204D00122002081F83D2070472F
:10353000026A40F244431A42F5D1026822F00102C5
:1035400002600122002081F83D20704790F83C2065
:10355000012A4FF002026CD080B580F83D20D0F8EF
:1035600000C04FF67772DCF8083023EA0202CCF88C
:1035700008200B684F2B29DC1F2B45DD202B46D064
:10358000302B44D0402B40F0AF80D1F804E0C96824
:10359000DCF82030DCF8202022F00102CCF82020DA
:1035A000DCF8182022F0F00242EA011123F00A02AE
:1035B00042EA0E02CCF81810CCF82020DCF80810F3
:1035C00041F0470121F0300128E000BF6F2B33DDCF
:1035D000B3F5005F74D0B3F5805F21D0702B40F05D
:1035E0008380D1E901E3C968DCF8082043EA0E03CF
:1035F00022F47F4243EA01211143CCF80810DCF8A1
:10360000081041F0770109E00BB1102B6CD1DCF808
:10361000081021F07001194341F00701CCF808109F
:103620000022012180F83D10002180F83C10BDE807
:1036300080401046704700BF502B21D0602B53D1E3
:10364000D1F804E0C968DCF82030DCF8202022F052
:103650001002CCF82020DCF8182022F4704242EA54
:10366000013123F0A00242EA0E12CCF81810CCF877
:103670002020DCF8081041F0670121F01001CDE7AF
:10368000D1F804E0C968DCF82030DCF8202022F012
:103690000102CCF82020DCF8182022F0F00242EAE7
:1036A000011123F00A0242EA0E02CCF81810CCF8FD
:1036B0002020DCF8081041F0570121F02001ADE78F
:1036C000D1E901E3C968DCF8082043EA0E0322F4DB
:1036D0007F4243EA01211143CCF80810DCF80810BE
:1036E00041F480419AE700BF01229AE7002804BF15
:1036F000012070472DE9F047044690F83D000D4643
:1037000028B9002084F83C00204600F049F8022047
:1037100084F83D00206844F207028168914381608B
:10372000211D03F003FA20684FF6FF788168826953
:10373000D0F820C0D5E9003ED5E9026A43EA010984
:10374000AB6922EA080246EA03234FF6FC46B3437C
:10375000D5E9076742EA0A0229691A4342EA0622C2
:1037600042EA01112CF022026B6942EA0E0241EAA0
:10377000073142EA0312C0F8089081610262012019
:1037800084F8460084F83E0084F83F0084F8420044
:1037900084F8430084F83D000020BDE8F087000075
:1037A00080B586B0006843F20042C4F201020021F5
:1037B00090420591CDE90311029137D040F20041CA
:1037C000C4F20001884254D141F21800C4F2020050
:1037D000416841F002014160416801F0020101913C
:1037E0000199016841F008010160006802A900F038
:1037F000080001900198302002900020CDE90300DC
:1038000040F60040C4F20100FEF764FC0420C4F25C
:10381000010001684FF2FF32CFF6FF02114041F084
:10382000E06141F40061016006B080BD41F2180022
:10383000C4F20200026842F400520260026802F41C
:1038400000520192019A026842F010020260006880
:1038500000F0100001900198C020CDE9020140F66F
:103860000040C4F20100049100F5806002A9FEF757
:1038700031FC06B080BD000080B590F83E2090F885
:103880003F3090F842E090F843C004290AD0B9B91B
:10389000012A4FF0010208BFBEF1010F34D01046DB
:1038A00080BD00BF012B4FF0010208BFBCF1010F2A
:1038B000F5D1022180F83F1080F8431000681EE027
:1038C000012A4FF0010208BF012BE8D1BEF1010F20
:1038D000E5D1BCF1010FE2D1022280F83E2080F850
:1038E0003F2080F8422080F8432091B10068016AAF
:1038F00021F001010162016A41F001010162102120
:103900006FF0100209E000BF022180F83E1080F83D
:103910004210006801216FF00102036A1A4002623E
:10392000026A114301620168002241F00101016055
:10393000104680BD7047000070B504460068C56839
:103940000669B10716D515F0020113D06FF0020118
:103950000161012121778069800703D02046FFF7AC
:10396000E9FF05E0204600F007F9204600F07AFA6A
:1039700000202077700719D515F0040016D02068B4
:103980006FF00401016102212177806910F4407F0A
:1039900004D02046FFF7CEFF06E000BF204600F02F
:1039A000EBF8204600F05EFA00202077300717D5AC
:1039B00015F0080014D020686FF00801016104219F
:1039C0002177C069800703D02046FFF7B3FF05E0E9
:1039D000204600F0D1F8204600F044FA002020777D
:1039E000F00619D515F0100016D020686FF0100100
:1039F000016108212177C06910F4407F04D020467E
:103A0000FFF798FF06E000BF204600F0B5F820461B
:103A100000F028FA00202077F00718BF15F0010009
:103A200002D1300609D412E020686FF00101016173
:103A3000204600F0E1FA300609D515F0800006D0E6
:103A400020686FF0800101612046FFF707FC7006D7
:103A500009D515F0400006D020686FF040010161E3
:103A6000204600F025FBB00658BF70BD15F02000C1
:103A700008D021686FF0200220460A61BDE870403E
:103A8000FFF7EEBB70BD000080B586B00068002176
:103A9000B0F1804FCDE904110391029142D040F67C
:103AA0000001C4F2000188421ED042F60041C4F277
:103AB0000101884234D141F21800C4F202000168C9
:103AC00041F004010160006800F0040001900198D9
:103AD0004FF48070029002200390059040F60000A1
:103AE000C4F2010019E000BF41F21800C4F2020064
:103AF000016841F008010160006800F008000190D1
:103B000001984FF44070029002200390059040F617
:103B10000000C4F2010000F5806002A9FEF7DAFAA5
:103B200006B080BD41F21800C4F20200016841F005
:103B300004010160006802A900F0040001900198EE
:103B400048F20C00029002200390059040F600001D
:103B5000C4F20100FEF7BEFA0420C4F201000168BD
:103B60004FF6FF42CFF6FF02114041F0E06141F411
:103B70008071016006B080BD7047000090F83C3055
:103B8000012B04BF022070474FEAB202032A00F261
:103B90001D812DE9F041DFE802F003C7479100BF26
:103BA000036843F200461D6A1A6A25F0020522F0F6
:103BB00001021A621A465C6852F818CF8F68D1F871
:103BC00000E0C4F20106B34245EA070505D042F61B
:103BD0000047C4F20107BB4205D1CF6825F00C05B0
:103BE00027F004073D43B34205D042F60046C4F235
:103BF0000106B34205D1D1E9056724F4407434438A
:103C00003C432CF0730747EA0E075C609F614F68E6
:103C100009695F631D629F6947F008079F619F699B
:103C200027F004079F61C6E0036843F200461D6A5F
:103C30001A6A25F4007522F480721A621A46D3F8C3
:103C400004C052F81CEF8F68D1F80080C4F201065E
:103C5000B34245EA072505D042F60047C4F2010702
:103C6000BB4208D1CF6840F2FF443F0225F44065D3
:103C700027EA04042543B34205D042F60044C4F2C7
:103C80000104A34206D1D1E905462CF4405726434E
:103C900047EA061C2EF0730747EA0807C3F804C07A
:103CA000DF614F680969DF631D62DF6947F008075C
:103CB000DF61DF6927F00407DF617CE0036843F21E
:103CC0000047D3F820C01A6AC4F2010722F48052D8
:103CD0001A621A465C6852F81C5FD1F800E08E68E0
:103CE000BB4205D042F60047C4F20107BB4204D1F3
:103CF0004F6924F4804444EA87142CF4005747EABF
:103D0000063725F4E64646EA0E265C60DE614E681C
:103D100009691E641F62DF6947F40067DF61DF69BC
:103D200027F48067DF6145E0036843F200481D6ABD
:103D30001A6A25F0200522F010021A621A465C6801
:103D400052F818CF8F68D1F800E0C4F2010843455B
:103D500045EA071505D042F60047C4F20107BB4209
:103D600007D1CF686FF0400625F0C00506EA0716B8
:103D70003543434505D042F60046C4F20106B3423E
:103D800006D1D1E9056724F440643E4344EA860441
:103D90002CF4E64747EA0E275C609F614F6809698B
:103DA0009F631D629F6947F400679F619F6927F4C5
:103DB00080679F6109021368194311600021BDE803
:103DC000F041002280F83C20084670470121002283
:103DD00080F83C2008467047002804BF0120704747
:103DE00010B5044690F83D0028B9002084F83C0046
:103DF000204600F01FF8022084F83D002068211DB5
:103E000002F094FE012084F8460084F83E0084F815
:103E10003F0084F8400084F8410084F8420084F8B0
:103E2000430084F8440084F8450084F83D000020F5
:103E300010BD0000006842F60041C4F20101884252
:103E400018BF704781B041F21800C4F20200016847
:103E500041F400610160006800F400600090009887
:103E600001B0704770470000C1B1042908D008298B
:103E700014BF41224022825C012A05D016E000BF17
:103E80003F22825C012A11D10222082910D0042984
:103E900014BF80F8412080F83F200BE090F83E20CE
:103EA000012A03D1022280F83E2003E0012070475E
:103EB00080F84020006801F01F010122036A02FA25
:103EC00001F123EA01020262026A114340F6FF3265
:103ED000C4F20002904201620EDCB0F1804F25D0A6
:103EE00040F20041C4F2000188421FD040F60001B8
:103EF000C4F2000118E000BF40F60041C4F2000126
:103F0000884213D043F20042C4F2010242F600415B
:103F10009042C4F2010101D088420ED1436C90421C
:103F200043F40043436401D0884206D1816801F024
:103F30000701062904BF00207047016841F0010114
:103F4000016000207047000010B5026801F01F0EEC
:103F50004FF0010C146A0CFA0EF324EA0303136207
:103F600043F20044136AC4F20104A242136205D072
:103F700042F60043C4F201039A4209D1136A41F2A6
:103F80001114234204D1136A40F2444423420FD057
:103F9000136A41F21114234213D1136A40F24444CC
:103FA00023420ED1136823F00103136009E000BF20
:103FB000536C23F400435364136A41F211142342F7
:103FC000EBD0082912D004290AD000294FF00101B2
:103FD00014BF80F8411080F83E10002010BD00BFD3
:103FE000012180F83F10002010BD00BF012180F8A2
:103FF0004010002010BD000040F6EC31C2F200017C
:1040000088420DD040F63441C2F20001884211D0FE
:1040100040F67C41C2F20001884235D0704700BFB3
:1040200040F21030C2F200000178022922D10321AF
:1040300001707047B0B540F21434C2F20004206839
:1040400040F2802501302060C2F200052978012964
:1040500004D102F073FB0220287020680A2818BFE0
:10406000B0BD40F21030C2F200000121017000200A
:104070002060B0BD0178042902D001780529CDD196
:1040800007210170704700BF40F20530C2F2000006
:104090000178012904BF0221017040F20C30C2F204
:1040A00000000178012918BF704702210170704794
:1040B000704700007047000070470000B0B582B044
:1040C00001680A68CC684B6902F02F05202D04F0C6
:1040D000200505D125B102B0BDE8B04002F072BFA5
:1040E0005FEA027C1EBF03F0010E04F4907313EB31
:1040F0000E0341D1036BD50618D5012B16D114F050
:10410000100313D0002201920A6801924A680192BA
:10411000019A496949064BD4818DC28DC38D002B0C
:1041200018BF914240F0F48102B0B0BD13062DD506
:1041300014F080032AD090F84120212AF4D182681B
:10414000B2F5805F03D10269002A00F06782026A3B
:10415000531C036212784A60C28C013A1304C28471
:10416000E2D1C86820F08000C860C86840F0400014
:10417000C86002B0B0BD00BFD30718BF14F480738D
:1041800040F0D080530700F1D380D8E05206CBD561
:1041900014F04002C8D0CA6822F04002CA60202150
:1041A00080F8411002B0BDE8B04000F04FBD00BF44
:1041B000C16B0A68526893B2002BB5D0858DAB42B3
:1041C000B2D2C2858969202900F0A180016851E836
:1041D000031F026821F4807142E80313DBB1016818
:1041E00051E8031F026821F4807142E8031393B180
:1041F000016851E8031F026821F4807142E803134B
:104200004BB1016851E8031F026821F4807142E854
:104210000313002BDAD1016851E8051F026821F071
:10422000010142E80513C3B3016851E8051F0268A4
:1042300021F0010142E805137BB3016851E8051F35
:10424000026821F0010142E8051333B3016851E827
:10425000051F026821F0010142E80513002BDAD1A5
:104260001BE000BF016851E8051F026821F0400112
:1042700042E80513DBB1016851E8051F026821F02F
:10428000400142E8051393B1016851E8051F026837
:1042900021F0400142E805134BB1016851E8051FC8
:1042A000026821F0400142E80513002BDAD12021F9
:1042B00080F8421000210163016851E8031F026881
:1042C00021F0100142E80313DBB1016851E8031F3C
:1042D000026821F0100142E8031393B1016851E82C
:1042E000031F026821F0100142E803134BB101687B
:1042F00051E8031F026821F0100142E80313002B6C
:10430000DAD1C16B04460846FDF714FC20460221B1
:104310004163818DC28D891A89B202B0BDE8B04077
:10432000FFF7C8BE436C43F001034364530706D54F
:10433000BEF1000F03D0436C43F0020343649307C4
:1043400006D5BEF1000F03D0436C43F00403436471
:10435000BCF1000F06D55EEA050303D0436C43F0C1
:1043600008034364436C002B3FF4DEAE920605D590
:1043700025B1044602F026FE216820464969426CB8
:1043800001F0400102F00802891800F0B98000BF76
:10439000016851E8031F026821F4907142E8031399
:1043A000BBB3016851E8031F026821F4907142E831
:1043B000031373B3016851E8031F026821F490717D
:1043C00042E803132BB3016851E8031F026821F48C
:1043D000907142E80313002BDAD11AE0016851E82A
:1043E000051F026821F0010142E80513DBB10168F5
:1043F00051E8051F026821F0010142E8051393B15D
:10440000016851E8051F026821F0010142E8051327
:104410004BB1016851E8051F026821F0010142E833
:104420000513002BDAD1016B012924D1016851E871
:10443000031F026821F0100142E80313DBB1016899
:1044400051E8031F026821F0100142E8031393B101
:10445000016851E8031F026821F0100142E80313CC
:104460004BB1016851E8031F026821F0100142E8D6
:104470000313002BDAD1202180F8421000210163C0
:1044800001684969490640F1C380016851E8051F88
:10449000026821F0400142E80513DBB1016851E8F0
:1044A000051F026821F0400142E8051393B101683D
:1044B00051E8051F026821F0400142E805134BB1A5
:1044C000016851E8051F026821F0400142E8051328
:1044D000002BDAD1C16B002900F09A8046F60D421C
:1044E000C0F60002044608464A63FDF747FB002871
:1044F0003FF41AAEE06B416B02B0BDE8B040084734
:104500000446FFF7D9FD0020606402B0B0BD00BFD3
:10451000891A00BF026852E8032F036822F49072E0
:1045200043E80325BDB3026852E8032F036822F471
:10453000907243E8032575B3026852E8032F0368BD
:1045400022F4907243E803252DB3026852E8032F4A
:10455000036822F4907243E80325002DDAD11AE0B3
:10456000026852E8052F036822F0010243E805259E
:10457000DDB1026852E8052F036822F0010243E82A
:10458000052595B1026852E8052F036822F0010263
:1045900043E805254DB1026852E8052F036822F073
:1045A000010243E80525002DDAD1202280F84220BF
:1045B00000220263026852E8032F036822F010020F
:1045C00043E80325DDB1026852E8032F036822F0B7
:1045D000100243E8032595B1026852E8032F0368EF
:1045E00022F0100243E803254DB1026852E8032F80
:1045F000036822F0100243E80325002DDAD10222DD
:1046000089B2426302B0BDE8B040FFF753BD00BFBE
:1046100002B0BDE8B040FFF74FBD00BF026A32F8FC
:10462000023B6FF35F234B60026295E5002804BFF5
:104630000120704710B5044690F8410028B90020C9
:1046400084F84000204600F063F8242084F84100FC
:104650002068D4E90212C36823F40053C3600369DD
:1046600023F440531A430261D4E904231143C2687E
:10467000194341F20C639A431143C1604169A26935
:1046800021F44071114343F60002C4F2010290424A
:10469000416103D0FEF7E6F902E000BFFEF7F6F94C
:1046A000D4E90023192148439900B0FBF1F048F206
:1046B0001F5CC5F2EB1CA0FB0C314FF69C73490943
:1046C000C0F6FF7301FB0300322303EB0010A0FBD5
:1046D0000C03F02000EA531000EB0110C3F3431168
:1046E000084490601069202120F4904010615069C6
:1046F00020F02A005061D06840F40050D0600020C3
:10470000606484F8411084F84210606310BD0000BA
:104710002DE9F04186B00446006844F60001C4F279
:104720000001002788420597CDE9037702976BD0F7
:1047300043F60001C4F20101884240F0DD8041F2FD
:104740001800C4F20200016840F6000541F48041FF
:1047500001600168C4F2010501F4804101910199F1
:10476000016802AE41F004010160006840F21C08DB
:1047700000F00400019001984FF4007002900220B4
:1047800003900320059028463146C4F20208FDF745
:10479000A1FC4FF480600290002728463146CDE905
:1047A0000377FDF797FC40F6B80508F13C00C2F22C
:1047B00000058026C5E900072846C5E90276C5E957
:1047C0000477C5E90677FDF7B9FB002818BFFCF7A9
:1047D0007FFFE5636C6240F6FC0508F12800C2F239
:1047E0000005102185E883002846C5E90367C5E96F
:1047F0000577EF61FDF7A2FB00284FF0250618BFF3
:10480000FCF766FF6EE000BF41F21800C4F2020040
:10481000416802AE41F480214160416840F21C08C9
:1048200001F48021019101990168C4F2020841F06C
:10483000100101600068314600F0100001900198FD
:104840004FF480600290022003900320059040F610
:104850000000C4F2010000F500652846FDF73AFCAF
:104860004FF40060CDE90207284631460497FDF772
:1048700031FC0420C4F20100016840F6401541F00B
:10488000E06141F0100121F02001016008F1140005
:10489000C2F200058026C5E900072846C5E9027670
:1048A000C5E90477C5E90677FDF748FB002818BF7E
:1048B000FCF70EFFE5636C6240F68415C2F200055A
:1048C00010200021C5E900802846C5E90216C5E987
:1048D0000411C5E90611FDF731FB4FF0270608B1B9
:1048E000FCF7F6FE30460E210022A5636C62FDF750
:1048F0001DFF3046FDF708FF06B0BDE8F08100005F
:1049000090F84230202B0BD194460A4600294FF0F4
:10491000010118BFBCF1000F06D10846704700BF67
:1049200002210846704700BF70B582B000252221E1
:1049300005638262A0F82CC0456480F842100168CB
:10494000C36B46F6955446F6F56E46F61946C0F624
:104950000004C0F6000EC0F60006C3E90A4EC3E923
:104960000C650431044618466346FDF735FB019596
:10497000216820460A6801924968019101992169DC
:1049800031B300BF016851E8031F026841F4807130
:1049900042E80313E3B1016851E8031F026841F4E0
:1049A000807142E803139BB1016851E8031F02685C
:1049B00041F4807142E8031353B1016851E8031FC9
:1049C000026841F4807142E80313002BDAD100BF82
:1049D000016851E8051F026841F0010142E8051332
:1049E000BBB3016851E8051F026841F0010142E8CC
:1049F000051373B3016851E8051F026841F0010116
:104A000042E805132BB3016851E8051F026841F025
:104A1000010142E80513002BDAD11AE0016851E8E0
:104A2000051F026841F0400142E80513DBB101684F
:104A300051E8051F026841F0400142E8051393B1B7
:104A4000016851E8051F026841F0400142E8051382
:104A50004BB1016851E8051F026841F0400142E88E
:104A60000513002BDAD1002002B070BD90F842305F
:104A7000202B07D100294FF0010318BF002A05D1D0
:104A80001846704702231846704700BF002303638F
:104A9000816222218285C285436480F842100169C7
:104AA000006819B1C16841F48071C160416941F089
:104AB00001014161C16841F02001C16018467047A1
:104AC000006843F60001C4F20101884210D044F6A8
:104AD0000001C4F20001884208D044F20041C4F24F
:104AE0000001884218BF7047022102E0032100E064
:104AF000012149F2D81201EBC100C0F6000202EB1D
:104B0000800050F8242D8A423BD110B5416840F214
:104B1000B432C2F200024FF4127301FB03244022AC
:104B2000D4F8141104EB8101C1F80021D4F8141158
:104B3000D4F83C22032902F14002C4F83C221ABFF7
:104B4000D4F8141101310021C4F81411C16880682F
:104B5000D4F81421002904EB82114FF0400203D055
:104B6000FFF7CEFE02E000BFFFF780FFD4F814018C
:104B7000D4F81011884204BF0120C4F81801BDE820
:104B8000104070477047000090F84130202B09D149
:104B9000944600294FF0010218BFBCF1000F05D167
:104BA0001046704702221046704700BF70B50022C1
:104BB00021230162A0F824C0A0F826C0426480F836
:104BC00041300468836B46F60D7E46F6BD7546F6A9
:104BD0001946C0F6000EC0F60005C0F60006C3E98F
:104BE0000AE5C3E90C62221D044618466346FDF738
:104BF000F3F9216820466FF040020A60016851E82D
:104C0000051F026841F0800142E80513DBB101682D
:104C100051E8051F026841F0800142E8051393B195
:104C2000016851E8051F026841F0800142E8051360
:104C30004BB1016851E8051F026841F0800142E86C
:104C40000513002BDAD1002070BD0000006843F688
:104C50000001C4F20101884210D044F60001C4F200
:104C60000001884208D044F20041C4F200018842A9
:104C700018BF7047022002E0032000E0012049F243
:104C8000D81200EBC001C0F6000202EB810151F81E
:104C9000242D824218D1486840F2B431C2F200019A
:104CA0004FF4127200FB02100021D0F82C22032ACC
:104CB0004FF000021CBFD0F82C220132C0F82C2289
:104CC000C0F83412C0F83812704700007047000076
:104CD000FEE700002DE9F04383B0044600680F466C
:104CE00001680A9D0B9E41F48071994690460160CF
:104CF00020464FF0011100222B46009600F0ACF840
:104D000050B120680068C00544BF4FF400702064B3
:104D1000032003B0BDE8F083206807F0FE010161C5
:104D20000221C0F2010120462A46334600F07AF9FA
:104D300020B1012003B0BDE8F08300BF0020029045
:104D400020683246416902918069294602900298A2
:104D5000204600F0D3F958B1206C0428E9D120682E
:104D6000016841F400710160012003B0BDE8F083E7
:104D70002068B9F1010F0AD04FEA182101612046DD
:104D80002946324600F0BAF90028E5D120685FFADA
:104D900088F10161002003B0BDE8F08370B50368BD
:104DA000044653F8140F400711D40E46481C29D06E
:104DB00086BB00BF1868400527D4FDF78BFA23682F
:104DC00053F8140F400737D518684007F2D5002074
:104DD00070BD00BF18684007F9D41868400514D4A6
:104DE00018684007F3D4186840050ED418684007C7
:104DF000EDD41868400508D4186840074FF000004B
:104E000048BF70BD18684005E4D56FF48060186035
:104E1000042012E0154603E053F8140F4007D6D4DF
:104E200018684005F1D4FDF755FA401B2368B042DD
:104E3000F2D958694007EFD42020002120222163B5
:104E400084F83D2084F83E10226C10432064012039
:104E500084F83C1070BD00002DE9F0410546006863
:104E60001E46144601F47F0201338FB242D0DDF8B2
:104E70001880B2F5803F40F0878040693840C01B01
:104E8000B0FA80F04009844240F0C8804EB924E076
:104E900040693840C01BB0FA80F04009844240F0BD
:104EA000BD80FDF717FAA0EB08012868B142EFD9E1
:104EB00041693940C91BB1FA81F149098C42E7D1F6
:104EC0009BE000BF40693840C01BB0FA80F0400949
:104ED00084424FF0000040F0A280FDF7FBF9286803
:104EE00041693940C91BB1FA81F149098C42E9D1C4
:104EF00083E000BFB2F5803F24D100BF4169394053
:104F0000C91BB1FA81F149098C4240F0878041699F
:104F10003940C91BB1FA81F149098C4240F07E80C9
:104F200041693940C91BB1FA81F149098C4275D1F7
:104F300041693940C91BB1FA81F149098C42DDD080
:104F40006CE000BF81693940C91BB1FA81F14909A0
:104F50008C4263D181693940C91BB1FA81F1490999
:104F60008C425BD181693940C91BB1FA81F1490991
:104F70008C4253D181693940C91BB1FA81F1490989
:104F80008C42DFD04AE000BF80693840C01BB0FAD5
:104F900080F04009844241D146B923E0806938401D
:104FA000C01BB0FA80F04009844237D1FDF792F976
:104FB000A0EB08012868B142F0D981693940C91BCA
:104FC000B1FA81F149098C42E8D116E08069384094
:104FD000C01BB0FA80F0400984424FF0000018BFB7
:104FE000BDE8F081FDF776F9286881693940C91B71
:104FF000B1FA81F149098C42E8D1002020212863CF
:1050000085F83D1085F83E00296C41F020012964A7
:1050100085F83C000120BDE8F08100BF0020BDE81C
:10502000F0810000F0B581B0044600681D46436978
:105030008FB203EA0701B94202D1002001B0F0BDEE
:105040004169164601323CD0490512D47EB300BFF7
:10505000FDF740F9411B2068B14203D9416939404D
:10506000B9422BD141693940B942E6D0416949057D
:10507000EED5016841F4007101606FF48061416117
:10508000042000212022216384F83D2084F83E1072
:10509000226C1043206484F83C10012001B0F0BD64
:1050A00041693940B942C8D041694905E1D4FDF7A9
:1050B00011F9206841693940B942F1D02020E0E778
:1050C00041694905D5D441693940B942B5D04169F2
:1050D0004905CED441693940B942AED0416949054C
:1050E000C7D441693940B942A7D041694905C0D404
:1050F00041693940B942E3D19FE7000070B50368C8
:10510000044653F8140F000611D40E46481C29D04B
:1051100086BB00BF1868400527D4FDF7DBF823687D
:1051200053F8140F000637D518680006F2D5002092
:1051300070BD00BF18680006F9D41868400514D483
:1051400018680006F3D4186840050ED418680006E5
:10515000EDD41868400508D4186800064FF0000028
:1051600048BF70BD18684005E4D56FF480601860D2
:10517000042012E0154603E053F8140F0006D6D4BD
:1051800018684005F1D4FDF7A5F8401B2368B0422C
:10519000F2D958690006EFD4202000212022216393
:1051A00084F83D2084F83E10226C104320640120D6
:1051B00084F83C1070BD000070B584B040F28005EA
:1051C000C2F200056A1812798DF8032020B1002080
:1051D000ADF8010084E000BF01F03F0005EB800066
:1051E000817DC27D01F007048DF80440C1F3C20443
:1051F00089098DF8061002F00701037E8DF807106B
:10520000C2F3C2018DF8081091098DF8091003F05E
:105210000701407E8DF80A10C3F3C2018DF80B1010
:1052200099098DF80C1000F007018DF80D10C0F3EE
:10523000C2018DF80E108009A97A8DF805408DF80D
:105240000F0001A895F80BC0415C95F80CE06E7B4F
:10525000002918BF01218A0010F80C30AC7B10F82F
:105260000EC00832865D045D002B08BF8A00BCF1C9
:10527000000F18BF1032002E18BF2032E97B002C1F
:10528000415C18BF42F04002002918BF42F0800282
:10529000297C8DF801206A7CAB7C415CEE7C002986
:1052A00018BF01218C00825C10F803C02B7D0834EC
:1052B000865DC35C002A08BF8C00BCF1000F18BFDC
:1052C0001034002E18BF2034697D002B405C18BFBD
:1052D00044F04004002818BF44F080048DF80240D8
:1052E00040F60004C4F20104204640210022FCF7ED
:1052F000EBFF28680DF1010103221423FDF79AFE4C
:10530000204640210122FCF7DFFF04B070BD000001
:1053100010B584B040F6440042F20041C2F20000F1
:10532000C4F2010100224FF46023012402730275CC
:10533000C361C0E9001282600461FCF7EBFA002847
:1053400018BFFCF7C5F90A20CDE90104022003903B
:1053500040F64400C2F2000001A9FCF7C1F90028A0
:1053600018BFFCF7B5F904B010BD000080B582B0DD
:1053700041F21400C4F202000168002241F0010170
:1053800001600068002100F00100019001980B20ED
:10539000FDF7CCF90B20FDF7B7F90C200021002216
:1053A000FDF7C4F90C20FDF7AFF90D200021002214
:1053B000FDF7BCF90D20FDF7A7F90E200021002212
:1053C000FDF7B4F90E20FDF79FF90F200021002210
:1053D000FDF7ACF90F2002B0BDE88040FDF794B9AD
:1053E0002DE9F04F85B0002441F21800CDE90344C7
:1053F000CDE90144C4F20200016841F2000641F027
:10540000100101600168C4F2010601F01001009171
:1054100000990168002241F020010160016801F05B
:10542000200100910099016841F0040101600168C8
:1054300001F0040100910099016841F00801016048
:10544000006842F2160100F0080000900098304613
:10545000FCF73AFFA6F50065284651210022FCF72B
:1054600033FFA6F5806948464FF480510022FCF7CF
:105470002BFF06F58068404604210022FCF724FF3C
:1054800042F204000190022001AF4FF0010A0490A3
:1054900030463946CDE902A4FCF71CFE1220CDE9C6
:1054A000010A03200490304639460394FCF712FEAB
:1054B000082040F2000B0190C1F2110B3046394632
:1054C000CDE902B4FCF706FE5120CDE9010A022025
:1054D0000490284639460394FCF7FCFD0220CDE9F0
:1054E000010B284639460394FCF7F4FD4FF4815034
:1054F00001900BF50010CDE9020430463946FCF767
:10550000E9FD042548463946CDE9015B0394FCF7E3
:10551000E1FD4FF48050CDE9010A03200490484694
:1055200039460394FCF7D6FD0220049040463946E4
:10553000CDE9015A0394FCF7CDFD07200821002294
:10554000FDF7F4F80720FDF7DFF808200821002216
:10555000FDF7ECF80820FDF7D7F809200821002214
:10556000FDF7E4F80920FDF7CFF817200621002207
:10557000FDF7DCF81720FDF7C7F8282006210022E8
:10558000FDF7D4F82820FDF7BFF805B0BDE8F08F8F
:1055900080B540F6C81045F60001C2F20000C4F222
:1055A000000148F2A06200234FF4804CC0F20102D7
:1055B00080E80E00C0E9033CC0E90533C0E90733C9
:1055C000FCF78EFE002808BF80BDBDE88040FCF7D8
:1055D0007FB8000080B540F61C2043F20001C2F203
:1055E0000000C4F201014FF48272002380E80E0033
:1055F00000F114014FF4007C4FF0080E81E80850D0
:105600000A21C0E90333C0E90833C0E90A31FDF7D4
:1056100051FC002808BF80BDBDE88040FCF758B8A9
:1056200080B540F6742043F60001C2F20000C4F2D7
:1056300000014FF4827200234FF4007C80E80E00DA
:105640000A21C0E90333C0E9053CC361C0E908335E
:10565000C0E90A31FDF72EFC002808BF80BDBDE877
:105660008040FCF735B8000010B592B040F6CC2071
:1056700042F600420021C2F20000C4F201024FF6DD
:10568000FF731191CDE90F11CDE90D11CDE90B118A
:10569000CDE90911CDE90711CDE90511CDE90311D6
:1056A000CDE90111C0E90021C0E90213C0E90411EC
:1056B0008161FEF791FB002818BFFCF709F840F65E
:1056C000CC20C2F2000010A9FDF7F2FD002818BF9F
:1056D000FBF7FEFF6020099040F6CC200024C2F2C8
:1056E000000009A90022CDE90A44CDE90C44CDE926
:1056F0000E44FEF743FA002818BFFBF7E9FF4FF40A
:105700000050069040F6CC20C2F2000001A905949A
:10571000CDE90344CDE901440894FDF7A3FD002839
:1057200018BFFBF7D5FF40F6CC20C2F20000FEF711
:10573000ABF912B010BD000010B58EB040F61430B9
:105740000021C2F200004FF080424FF6FF730D912E
:10575000CDE90B110991CDE90711CDE90511CDE98D
:105760000311CDE90111C0E90021C0E90213016173
:105770008161FDF7E9FD002818BFFBF7A9FF4FF491
:1057800080500A9040F61430C2F200000AA9FDF7DA
:10579000DDFE002818BFFBF79BFF40F61430C2F275
:1057A0000000FEF719FB002818BFFBF791FF40F639
:1057B00014300024C2F2000008A9CDE90844FDF726
:1057C00077FD002818BFFBF783FF6020CDE90104B7
:1057D00040F61430C2F2000001A90022039405949F
:1057E000FEF7CCF9002818BFFBF772FF40F6143023
:1057F000C2F2000001A90822FEF7C0F9002818BF74
:10580000FBF766FF40F61430C2F2000001A90C223B
:10581000FEF7B4F9002818BFFBF75AFF40F6143022
:10582000C2F20000FEF730F90EB010BD80B58CB0AA
:1058300040F65C3040F200420021C2F20000C4F2A7
:105840000002C0E9002103224FF6FF73CDE90321D6
:105850000122CDE90011C0E9021301618161CDE9A6
:105860000521CDE90711CDE909210B9103A9FDF728
:105870003DFF002818BFFBF72BFF40F65C30C2F25B
:1058800000006946FDF714FD002818BFFBF720FF54
:105890000CB080BD10B58EB040F6A43040F60002CA
:1058A0000021C2F20000C4F200024FF6FF730D9116
:1058B000CDE90B110991CDE90711CDE90511CDE92C
:1058C0000311CDE90111C0E90021C0E90213016112
:1058D0008161FDF739FD002818BFFBF7F9FE4FF491
:1058E00080500A9040F6A430C2F200000AA9FDF7E9
:1058F0002DFE002818BFFBF7EBFE40F6A430C2F2E5
:105900000000FEF769FA002818BFFBF7E1FE40F639
:10591000A4300024C2F2000008A9CDE90844FDF734
:10592000C7FC002818BFFBF7D3FE6020CDE90104B7
:1059300040F6A430C2F2000001A9082203940594A5
:10594000FEF71CF9002818BFFBF7C2FE40F6A43092
:10595000C2F2000001A90C22FEF710F9002818BFBE
:10596000FBF7B6FE40F6A430C2F20000FEF78CF85A
:105970000EB010BD80B586B040F6EC3040F6004267
:105980000021C2F20000C4F200024FF6FF7305913D
:10599000CDE90311CDE90011C0E90021C0E90213EE
:1059A00001618161FDF7D0FC002818BFFBF790FE74
:1059B0004FF48050029040F6EC30C2F2000002A991
:1059C000FDF7C4FD002818BFFBF782FE40F6EC305F
:1059D000C2F200006946FDF76BFC002818BFFBF718
:1059E00077FE06B080BD000080B582B040F634403E
:1059F00041F200020021C2F20000C4F2000248F6A7
:105A00009F434FF0C70CCDE90011C0E90023C0E966
:105A1000021C8161FDF798FC002818BFFBF758FEB7
:105A200040F63440C2F200006946FDF741FC002810
:105A300018BFFBF74DFE02B080BD000080B582B0FC
:105A400040F67C4041F200420021C2F20000C4F264
:105A500000024FF6FF73CDE90011C0E90021C0E953
:105A600002138161FDF770FC002818BFFBF730FEC0
:105A700040F67C40C2F200006946FDF719FC0028A0
:105A800018BFFBF725FE02B080BD000010B58CB03A
:105A900040F6C44043F200410024C2F20000C4F2C8
:105AA0000101C0E900140321CDE9031401214FF6DF
:105AB000FF72CDE90514CDE9091403A9CDE900442D
:105AC000C0E90242C0E904448461CDE907440B9473
:105AD000FDF70CFE002818BFFBF7FAFD40F6C440A6
